******************************************************************************
                  TI ARM Linker Unix v18.1.4                   
******************************************************************************
>> Linked Wed Jul 31 02:40:13 2019

OUTPUT FILE NAME:   <tiva_ros_monobot.out>
ENTRY POINT SYMBOL: "_c_int00_noargs"  address: 00002d25


MEMORY CONFIGURATION

         name            origin    length      used     unused   attr    fill
----------------------  --------  ---------  --------  --------  ----  --------
  FLASH                 00000000   00100000  00003e5a  000fc1a6  R  X
  SRAM                  20000000   00040000  0000b09c  00034f64  RW X


SEGMENT ALLOCATION MAP

run origin  load origin   length   init length attrs members
----------  ----------- ---------- ----------- ----- -------
00000000    00000000    00003e60   00003e60    r-x
  00000000    00000000    00000208   00000208    r-- .intvecs
  00000208    00000208    0000336e   0000336e    r-x .text
  00003578    00003578    00000888   00000888    r-- .const
  00003e00    00003e00    00000004   00000004    r-- .init_array
  00003e08    00003e08    00000058   00000058    r-- .cinit
20000000    20000000    0000b09c   00000000    rw-
  20000000    20000000    0000026c   00000000    rw- .vtable
  2000026c    2000026c    0000a5f4   00000000    rw- .bss
  2000a860    2000a860    00000400   00000000    rw- .stack
  2000ac60    2000ac60    00000400   00000000    rw- .sysmem
  2000b060    2000b060    0000003c   00000000    rw- .data


SECTION ALLOCATION MAP

 output                                  attributes/
section   page    origin      length       input sections
--------  ----  ----------  ----------   ----------------
.intvecs   0    00000000    00000208     
                  00000000    00000208     tm4c1294ncpdt_startup_ccs.obj (.intvecs)

.text      0    00000208    0000336e     
                  00000208    00000688     main.obj (.text)
                  00000890    00000356     main.obj (.text:_ZN3ros11NodeHandle_I13TivaCHardwareLi25ELi25ELi512ELi512EE8spinOnceEv)
                  00000be6    0000030c     ringbuf.obj (.text)
                  00000ef2    00000298     main.obj (.text:_ZN14rosserial_msgs20RequestParamResponse11deserializeEPh)
                  0000118a    00000002     rtsv7M4_T_le_v4SPD16_eabi.lib : stdlib_typeinfo.cpp.obj (.text:_ZNSt9type_infoD1Ev)
                  0000118c    00000200     driverlib.lib : sysctl.obj (.text:SysCtlClockFreqSet)
                  0000138c    000001f2     main.obj (.text:_ZNK14rosserial_msgs20RequestParamResponse9serializeEPh)
                  0000157e    00000196     main.obj (.text:_ZN3ros11NodeHandle_I13TivaCHardwareLi25ELi25ELi512ELi512EE15negotiateTopicsEv)
                  00001714    00000190     main.obj (.text:_ZN14rosserial_msgs9TopicInfo11deserializeEPh)
                  000018a4    00000132     driverlib.lib : gpio.obj (.text:GPIOPadConfigSet)
                  000019d6    00000002     rtsv7M4_T_le_v4SPD16_eabi.lib : _lock.c.obj (.text:_nop)
                  000019d8    0000011c     main.obj (.text:_ZN3ros11NodeHandle_I13TivaCHardwareLi25ELi25ELi512ELi512EE7publishEiPKNS_3MsgE)
                  00001af4    00000116     main.obj (.text:_ZNK14rosserial_msgs9TopicInfo9serializeEPh)
                  00001c0a    00000002     rtsv7M4_T_le_v4SPD16_eabi.lib : div0.asm.obj (.text)
                  00001c0c    00000114                                   : memory.c.obj (.text:realloc)
                  00001d20    000000fc                                   : fd_mul_t2.asm.obj (.text)
                  00001e1c    000000f8     main.obj (.text:_ZN3ros11NodeHandle_I13TivaCHardwareLi25ELi25ELi512ELi512EEC1Ev)
                  00001f14    000000d8     rtsv7M4_T_le_v4SPD16_eabi.lib : memory.c.obj (.text:free)
                  00001fec    000000d4     main.obj (.text:_ZN13TivaCHardware4initEv)
                  000020c0    000000c0     RosTivaHwdLib.lib : time.obj (.text)
                  00002180    0000009e     main.obj (.text:_ZN8std_msgs4Time11deserializeEPh)
                  0000221e    0000009c     rtsv7M4_T_le_v4SPD16_eabi.lib : memcpy_t2.asm.obj (.text)
                  000022ba    0000009a     main.obj (.text:_ZNK8std_msgs4Time9serializeEPh)
                  00002354    0000007e     main.obj (.text:_ZN14rosserial_msgs3Log11deserializeEPh)
                  000023d2    0000007a     rtsv7M4_T_le_v4SPD16_eabi.lib : memset_t2.asm.obj (.text)
                  0000244c    00000078                                   : memory.c.obj (.text:malloc)
                  000024c4    00000070     main.obj (.text:_ZN3ros11NodeHandle_I13TivaCHardwareLi25ELi25ELi512ELi512EE8syncTimeEPh)
                  00002534    0000006e     rtsv7M4_T_le_v4SPD16_eabi.lib : fd_tos_t2.asm.obj (.text)
                  000025a2    00000002     --HOLE-- [fill = 0]
                  000025a4    00000068     driverlib.lib : interrupt.obj (.text:IntEnable)
                  0000260c    00000068     main.obj (.text:_ZN3ros11NodeHandle_I13TivaCHardwareLi25ELi25ELi512ELi512EE6setNowERNS_4TimeE)
                  00002674    00000068     rtsv7M4_T_le_v4SPD16_eabi.lib : copy_decompress_lzss.c.obj (.text:decompress:lzss:__TI_decompress_lzss)
                  000026dc    00000060                                   : autoinit.c.obj (.text:__TI_auto_init_nobinit:__TI_auto_init_nobinit)
                  0000273c    0000005e     main.obj (.text:_ZN8std_msgs5Int3211deserializeEPh)
                  0000279a    0000005e     main.obj (.text:_ZN8std_msgs7Float3211deserializeEPh)
                  000027f8    0000005e     rtsv7M4_T_le_v4SPD16_eabi.lib : i_divt2.asm.obj (.text)
                  00002856    0000005c     main.obj (.text:_ZNK14rosserial_msgs3Log9serializeEPh)
                  000028b2    00000002     --HOLE-- [fill = 0]
                  000028b4    00000054     main.obj (.text:_ZN13TivaCHardware14UARTIntHandlerEv)
                  00002908    00000054     main.obj (.text:_ZNK8std_msgs5Int329serializeEPh)
                  0000295c    00000054     main.obj (.text:_ZNK8std_msgs7Float329serializeEPh)
                  000029b0    00000052     main.obj (.text:_ZN3ros11NodeHandle_I13TivaCHardwareLi25ELi25ELi512ELi512EE9advertiseERNS_9PublisherE)
                  00002a02    0000004e     main.obj (.text:_ZN13TivaCHardware5delayEj)
                  00002a50    0000004c     main.obj (.text:_ZN3ros11NodeHandle_I13TivaCHardwareLi25ELi25ELi512ELi512EE9subscribeINS_10SubscriberIN8std_msgs5Int32EvEEEEbRT_)
                  00002a9c    00000048     driverlib.lib : gpio.obj (.text:GPIOPinConfigure)
                  00002ae4    00000048                   : sysctl.obj (.text:_SysCtlFrequencyGet)
                  00002b2c    00000046                   : uart.obj (.text:UARTConfigSetExpClk)
                  00002b72    00000002     --HOLE-- [fill = 0]
                  00002b74    00000040                   : uart.obj (.text:_UARTIntNumberGet)
                  00002bb4    00000040     main.obj (.text:_ZN13TivaCHardware5writeEPhi)
                  00002bf4    00000040     main.obj (.text:_ZN3ros10SubscriberIN8std_msgs5Int32EvEC1EPKcPFvRKS2_Ei)
                  00002c34    0000003c     main.obj (.text:_ZN14rosserial_msgs20RequestParamResponseC1Ev)
                  00002c70    0000003c     main.obj (.text:_ZN14rosserial_msgs9TopicInfoC1Ev)
                  00002cac    0000003c     main.obj (.text:_ZN3ros3Msg8arrToVarIjPhEEvRT_T0_)
                  00002ce8    0000003c     rtsv7M4_T_le_v4SPD16_eabi.lib : memory.c.obj (.text:minsert)
                  00002d24    00000038                                   : boot_cortex_m.c.obj (.text:_c_int00_noargs:_c_int00_noargs)
                  00002d5c    00000038                                   : memory.c.obj (.text:minit)
                  00002d94    00000034     driverlib.lib : interrupt.obj (.text:IntRegister)
                  00002dc8    00000034                   : sysctl.obj (.text:SysCtlPeripheralEnable)
                  00002dfc    00000034     main.obj (.text:_ZN3ros11NodeHandle_I13TivaCHardwareLi25ELi25ELi512ELi512EE3logEcPKc)
                  00002e30    00000030     main.obj (.text:_ZN3ros11NodeHandle_I13TivaCHardwareLi25ELi25ELi512ELi512EE15requestSyncTimeEv)
                  00002e60    00000030     main.obj (.text:_ZN3ros3Msg8varToArrIPhjEEvT_T0_)
                  00002e90    0000002e     main.obj (.text:_ZN3ros11NodeHandle_I13TivaCHardwareLi25ELi25ELi512ELi512EE8initNodeEv)
                  00002ebe    0000002e     rtsv7M4_T_le_v4SPD16_eabi.lib : i_tofd_t2.asm.obj (.text)
                  00002eec    0000002a     driverlib.lib : gpio.obj (.text:GPIODirModeSet)
                  00002f16    00000002     --HOLE-- [fill = 0]
                  00002f18    00000028     main.obj (.text:_ZN14rosserial_msgs3LogC1Ev)
                  00002f40    00000028     rtsv7M4_T_le_v4SPD16_eabi.lib : memory.c.obj (.text:mremove)
                  00002f68    00000024     main.obj (.text:_ZN3ros9PublisherC1EPKcPNS_3MsgEi)
                  00002f8c    00000024     main.obj (.text:_ZN8std_msgs7Float32C1Ev)
                  00002fb0    00000022     driverlib.lib : pwm.obj (.text:PWMGenConfigure)
                  00002fd2    00000002     --HOLE-- [fill = 0]
                  00002fd4    00000020                   : uart.obj (.text:UARTDisable)
                  00002ff4    00000020                   : sysctl.obj (.text:_SysCtlMemTimingGet)
                  00003014    00000020     main.obj (.text:_ZN13TivaCHardware4readEv)
                  00003034    00000020     main.obj (.text:_ZN8std_msgs4TimeC1Ev)
                  00003054    00000020     main.obj (.text:_ZN8std_msgs5Int32C1Ev)
                  00003074    0000001e     driverlib.lib : pwm.obj (.text:PWMPulseWidthSet)
                  00003092    0000001e     main.obj (.text:_ZN3ros9Publisher7publishEPKNS_3MsgE)
                  000030b0    0000001c     driverlib.lib : systick.obj (.text:SysTickIntRegister)
                  000030cc    0000001c     main.obj (.text:_ZN3ros10SubscriberIN8std_msgs5Int32EvE8callbackEPh)
                  000030e8    00000018     driverlib.lib : gpio.obj (.text:GPIOPinTypeGPIOOutput)
                  00003100    00000018                   : uart.obj (.text:UARTIntRegister)
                  00003118    00000018     main.obj (.text:_ZN3ros11Subscriber_C1Ev)
                  00003130    00000018     main.obj (.text:_ZN3ros15NodeHandleBase_C1Ev)
                  00003148    00000018     main.obj (.text:_ZN3ros3MsgC1Ev)
                  00003160    00000018     main.obj (.text:_ZN3ros4TimeC1Ev)
                  00003178    00000014     driverlib.lib : pwm.obj (.text:PWMClockSet)
                  0000318c    00000014                   : systick.obj (.text:SysTickEnable)
                  000031a0    00000014                   : systick.obj (.text:SysTickIntEnable)
                  000031b4    00000014                   : uart.obj (.text:UARTEnable)
                  000031c8    00000014     main.obj (.text:_ZN13TivaCHardware4timeEv)
                  000031dc    00000014     rtsv7M4_T_le_v4SPD16_eabi.lib : strlen.c.obj (.text:strlen)
                  000031f0    00000012     driverlib.lib : gpio.obj (.text:GPIOPinTypePWM)
                  00003202    00000012                   : gpio.obj (.text:GPIOPinTypeQEI)
                  00003214    00000012                   : gpio.obj (.text:GPIOPinTypeUART)
                  00003226    00000012                   : pwm.obj (.text:PWMOutputState)
                  00003238    00000012                   : timer.obj (.text:TimerLoadSet)
                  0000324a    00000012     main.obj (.text:_ZN3ros11NodeHandle_I13TivaCHardwareLi25ELi25ELi512ELi512EE8logerrorEPKc)
                  0000325c    00000010     driverlib.lib : fpu.obj (.text:FPUEnable)
                  0000326c    00000010                   : fpu.obj (.text:FPULazyStackingEnable)
                  0000327c    00000010                   : interrupt.obj (.text:IntMasterDisable)
                  0000328c    00000010                   : interrupt.obj (.text:IntMasterEnable)
                  0000329c    00000010                   : pwm.obj (.text:PWMGenPeriodSet)
                  000032ac    00000010                   : qei.obj (.text:QEIVelocityConfigure)
                  000032bc    00000010                   : systick.obj (.text:SysTickPeriodSet)
                  000032cc    00000010     main.obj (.text:_ZN13TivaCHardware17SystickIntHandlerEv)
                  000032dc    00000010     main.obj (.text:_ZN14rosserial_msgs20RequestParamResponse6getMD5Ev)
                  000032ec    00000010     main.obj (.text:_ZN14rosserial_msgs20RequestParamResponse7getTypeEv)
                  000032fc    00000010     main.obj (.text:_ZN14rosserial_msgs3Log6getMD5Ev)
                  0000330c    00000010     main.obj (.text:_ZN14rosserial_msgs3Log7getTypeEv)
                  0000331c    00000010     main.obj (.text:_ZN14rosserial_msgs9TopicInfo6getMD5Ev)
                  0000332c    00000010     main.obj (.text:_ZN14rosserial_msgs9TopicInfo7getTypeEv)
                  0000333c    00000010     main.obj (.text:_ZN3ros11NodeHandle_I13TivaCHardwareLi25ELi25ELi512ELi512EE9connectedEv)
                  0000334c    00000010     main.obj (.text:_ZN8std_msgs4Time6getMD5Ev)
                  0000335c    00000010     main.obj (.text:_ZN8std_msgs4Time7getTypeEv)
                  0000336c    00000010     main.obj (.text:_ZN8std_msgs5Int326getMD5Ev)
                  0000337c    00000010     main.obj (.text:_ZN8std_msgs5Int327getTypeEv)
                  0000338c    00000010     main.obj (.text:_ZN8std_msgs7Float326getMD5Ev)
                  0000339c    00000010     main.obj (.text:_ZN8std_msgs7Float327getTypeEv)
                  000033ac    0000000e     driverlib.lib : qei.obj (.text:QEIConfigure)
                  000033ba    0000000e                   : qei.obj (.text:QEIDirectionGet)
                  000033c8    0000000e                   : timer.obj (.text:TimerEnable)
                  000033d6    0000000e                   : uart.obj (.text:UARTCharGetNonBlocking)
                  000033e4    0000000e                   : uart.obj (.text:UARTCharPutNonBlocking)
                  000033f2    0000000e     rtsv7M4_T_le_v4SPD16_eabi.lib : typeinfo.c.obj (.text:_ZN10__cxxabiv117__class_type_infoD0Ev)
                  00003400    0000000e                                   : typeinfo.c.obj (.text:_ZN10__cxxabiv120__si_class_type_infoD0Ev)
                  0000340e    0000000e     main.obj (.text:_ZN3ros10SubscriberIN8std_msgs5Int32EvE10getMsgTypeEv)
                  0000341c    0000000e     main.obj (.text:_ZN3ros10SubscriberIN8std_msgs5Int32EvE15getEndpointTypeEv)
                  0000342a    0000000e     main.obj (.text:_ZN3ros10SubscriberIN8std_msgs5Int32EvE9getMsgMD5Ev)
                  00003438    0000000e     main.obj (.text:_ZN3ros11NodeHandle_I13TivaCHardwareLi25ELi25ELi512ELi512EE11getHardwareEv)
                  00003446    0000000e     main.obj (.text:_ZN3ros9Publisher15getEndpointTypeEv)
                  00003454    0000000e     rtsv7M4_T_le_v4SPD16_eabi.lib : copy_decompress_none.c.obj (.text:decompress:none:__TI_decompress_none)
                  00003462    0000000c     driverlib.lib : cpu.obj (.text:CPUcpsid)
                  0000346e    0000000c                   : cpu.obj (.text:CPUcpsie)
                  0000347a    0000000c                   : pwm.obj (.text:PWMGenEnable)
                  00003486    0000000c                   : uart.obj (.text:UARTTxIntModeSet)
                  00003492    0000000c     main.obj (.text:_ZN13TivaCHardwareC1Ev)
                  0000349e    0000000c     main.obj (.text:_ZN3ros11Subscriber_C2Ev)
                  000034aa    0000000c     main.obj (.text:_ZN3ros15NodeHandleBase_C2Ev)
                  000034b6    0000000c     main.obj (.text:_ZN3ros3MsgC2Ev)
                  000034c2    0000000c     rtsv7M4_T_le_v4SPD16_eabi.lib : copy_zero_init.c.obj (.text:decompress:ZI:__TI_zero_init)
                  000034ce    0000000c     tm4c1294ncpdt_startup_ccs.obj (.text)
                  000034da    0000000a     driverlib.lib : qei.obj (.text:QEIDisable)
                  000034e4    0000000a                   : qei.obj (.text:QEIEnable)
                  000034ee    0000000a                   : qei.obj (.text:QEIIntDisable)
                  000034f8    0000000a                   : qei.obj (.text:QEIVelocityDisable)
                  00003502    0000000a                   : qei.obj (.text:QEIVelocityEnable)
                  0000350c    0000000a                   : uart.obj (.text:UARTFIFODisable)
                  00003516    0000000a                   : uart.obj (.text:UARTIntStatus)
                  00003520    00000008                   : timer.obj (.text:TimerIntEnable)
                  00003528    00000008                   : uart.obj (.text:UARTIntEnable)
                  00003530    00000008     rtsv7M4_T_le_v4SPD16_eabi.lib : new.cpp.obj (.text:_ZdlPv)
                  00003538    00000006     driverlib.lib : gpio.obj (.text:GPIOPinWrite)
                  0000353e    00000006                   : sysctl.obj (.text:SysCtlDelay)
                  00003544    00000006     rtsv7M4_T_le_v4SPD16_eabi.lib : pure_virt.c.obj (.text:__cxa_pure_virtual)
                  0000354a    00000004     driverlib.lib : qei.obj (.text:QEIPositionGet)
                  0000354e    00000004                   : qei.obj (.text:QEIPositionSet)
                  00003552    00000004                   : qei.obj (.text:QEIVelocityGet)
                  00003556    00000004                   : timer.obj (.text:TimerIntClear)
                  0000355a    00000004                   : uart.obj (.text:UARTIntClear)
                  0000355e    00000004     rtsv7M4_T_le_v4SPD16_eabi.lib : typeinfo.c.obj (.text:_ZN10__cxxabiv117__class_type_infoD1Ev)
                  00003562    00000004                                   : typeinfo.c.obj (.text:_ZN10__cxxabiv120__si_class_type_infoD1Ev)
                  00003566    00000004                                   : new.cpp.obj (.text:_ZdlPvj)
                  0000356a    00000004                                   : error.c.obj (.text:__abort_execution)
                  0000356e    00000004                                   : pre_init.c.obj (.text:_system_pre_init)
                  00003572    00000004                                   : exit.c.obj (.text:abort:abort)

.const     0    00003578    00000888     
                  00003578    000001b0     driverlib.lib : sysctl.obj (.const:g_pppui32XTALtoVCO)
                  00003728    00000090                   : gpio.obj (.const:g_pui32GPIOBaseAddrs)
                  000037b8    00000070                   : interrupt.obj (.const)
                  00003828    0000006c                   : sysctl.obj (.const:g_pui32Xtals)
                  00003894    00000040                   : uart.obj (.const:g_ppui32UARTIntMap)
                  000038d4    00000040                   : uart.obj (.const:g_ppui32UARTIntMapSnowflake)
                  00003914    0000003b     main.obj (.const:.typeinfo:_ZTSN3ros11NodeHandle_I13TivaCHardwareLi25ELi25ELi512ELi512EEE)
                  0000394f    00000039     main.obj (.const:.string:_ZZN3ros11NodeHandle_I13TivaCHardwareLi25ELi25ELi512ELi512EE7publishEiPKNS_3MsgEEs)
                  00003988    00000030     driverlib.lib : sysctl.obj (.const:g_sXTALtoMEMTIM)
                  000039b8    00000029     main.obj (.const:.typeinfo:_ZTSN14rosserial_msgs20RequestParamResponseE)
                  000039e1    00000027     main.obj (.const:.typeinfo:_ZTSN3ros10SubscriberIN8std_msgs5Int32EvEE)
                  00003a08    00000025     rtsv7M4_T_le_v4SPD16_eabi.lib : typeinfo.c.obj (.const:.typeinfo:_ZTSN10__cxxabiv120__si_class_type_infoE)
                  00003a2d    00000022                                   : typeinfo.c.obj (.const:.typeinfo:_ZTSN10__cxxabiv117__class_type_infoE)
                  00003a4f    00000021     main.obj (.const:.string:_ZZN14rosserial_msgs20RequestParamResponse6getMD5EvEs)
                  00003a70    00000021     main.obj (.const:.string:_ZZN14rosserial_msgs3Log6getMD5EvEs)
                  00003a91    00000021     main.obj (.const:.string:_ZZN14rosserial_msgs9TopicInfo6getMD5EvEs)
                  00003ab2    00000021     main.obj (.const:.string:_ZZN8std_msgs4Time6getMD5EvEs)
                  00003ad3    00000021     main.obj (.const:.string:_ZZN8std_msgs5Int326getMD5EvEs)
                  00003af4    00000021     main.obj (.const:.string:_ZZN8std_msgs7Float326getMD5EvEs)
                  00003b15    0000001d     main.obj (.const:.typeinfo:_ZTSN14rosserial_msgs9TopicInfoE)
                  00003b32    0000001c     main.obj (.const:.string:_ZN29_INTERNAL_8_main_cpp_53aba4d514rosserial_msgs12REQUESTPARAME)
                  00003b4e    00000019     main.obj (.const:.string:_ZZN14rosserial_msgs9TopicInfo7getTypeEvEs)
                  00003b67    00000018     main.obj (.const:.typeinfo:_ZTSN3ros15NodeHandleBase_E)
                  00003b7f    00000001     main.obj (.const:.string:_ZZN14rosserial_msgs3LogC1EvEs)
                  00003b80    00000018     main.obj (.const:_ZTVN14rosserial_msgs20RequestParamResponseE)
                  00003b98    00000018     main.obj (.const:_ZTVN14rosserial_msgs3LogE)
                  00003bb0    00000018     main.obj (.const:_ZTVN14rosserial_msgs9TopicInfoE)
                  00003bc8    00000018     main.obj (.const:_ZTVN3ros10SubscriberIN8std_msgs5Int32EvEE)
                  00003be0    00000018     main.obj (.const:_ZTVN3ros11Subscriber_E)
                  00003bf8    00000018     main.obj (.const:_ZTVN3ros3MsgE)
                  00003c10    00000018     main.obj (.const:_ZTVN8std_msgs4TimeE)
                  00003c28    00000018     main.obj (.const:_ZTVN8std_msgs5Int32E)
                  00003c40    00000018     main.obj (.const:_ZTVN8std_msgs7Float32E)
                  00003c58    00000017     main.obj (.const:.typeinfo:_ZTSN14rosserial_msgs3LogE)
                  00003c6f    00000014     main.obj (.const:.typeinfo:_ZTSN3ros11Subscriber_E)
                  00003c83    00000014     main.obj (.const:.typeinfo:_ZTSN8std_msgs7Float32E)
                  00003c97    00000001     main.obj (.const:.string:_ZZN14rosserial_msgs9TopicInfoC1EvEs)
                  00003c98    00000014     main.obj (.const:_ZTVN3ros11NodeHandle_I13TivaCHardwareLi25ELi25ELi512ELi512EEE)
                  00003cac    00000014     main.obj (.const:_ZTVN3ros15NodeHandleBase_E)
                  00003cc0    00000013     main.obj (.const:.string:_ZZN14rosserial_msgs3Log7getTypeEvEs)
                  00003cd3    00000012     main.obj (.const:.typeinfo:_ZTSN8std_msgs5Int32E)
                  00003ce5    00000011     main.obj (.const:.string:_ZZN8std_msgs7Float327getTypeEvEs)
                  00003cf6    00000011     main.obj (.const:.typeinfo:_ZTSN8std_msgs4TimeE)
                  00003d07    00000001     --HOLE-- [fill = 0]
                  00003d08    00000010     rtsv7M4_T_le_v4SPD16_eabi.lib : typeinfo.c.obj (.const:_ZTVN10__cxxabiv117__class_type_infoE)
                  00003d18    00000010                                   : typeinfo.c.obj (.const:_ZTVN10__cxxabiv120__si_class_type_infoE)
                  00003d28    0000000f     main.obj (.const:.string:_ZZN8std_msgs5Int327getTypeEvEs)
                  00003d37    0000000e     main.obj (.const:.string:_ZZN8std_msgs4Time7getTypeEvEs)
                  00003d45    0000000d     rtsv7M4_T_le_v4SPD16_eabi.lib : stdlib_typeinfo.cpp.obj (.const:.typeinfo:_ZTSSt9type_info)
                  00003d52    00000002     --HOLE-- [fill = 0]
                  00003d54    0000000c                                   : typeinfo.c.obj (.const:.typeinfo:_ZTIN10__cxxabiv117__class_type_infoE)
                  00003d60    0000000c                                   : typeinfo.c.obj (.const:.typeinfo:_ZTIN10__cxxabiv120__si_class_type_infoE)
                  00003d6c    0000000c     main.obj (.const:.typeinfo:_ZTIN14rosserial_msgs20RequestParamResponseE)
                  00003d78    0000000c     main.obj (.const:.typeinfo:_ZTIN14rosserial_msgs3LogE)
                  00003d84    0000000c     main.obj (.const:.typeinfo:_ZTIN14rosserial_msgs9TopicInfoE)
                  00003d90    0000000c     main.obj (.const:.typeinfo:_ZTIN3ros10SubscriberIN8std_msgs5Int32EvEE)
                  00003d9c    0000000c     main.obj (.const:.typeinfo:_ZTIN3ros11NodeHandle_I13TivaCHardwareLi25ELi25ELi512ELi512EEE)
                  00003da8    0000000c     main.obj (.const:.typeinfo:_ZTIN8std_msgs4TimeE)
                  00003db4    0000000c     main.obj (.const:.typeinfo:_ZTIN8std_msgs5Int32E)
                  00003dc0    0000000c     main.obj (.const:.typeinfo:_ZTIN8std_msgs7Float32E)
                  00003dcc    0000000b     main.obj (.const:.typeinfo:_ZTSN3ros3MsgE)
                  00003dd7    00000001     --HOLE-- [fill = 0]
                  00003dd8    00000008     main.obj (.const:.typeinfo:_ZTIN3ros11Subscriber_E)
                  00003de0    00000008     main.obj (.const:.typeinfo:_ZTIN3ros15NodeHandleBase_E)
                  00003de8    00000008     main.obj (.const:.typeinfo:_ZTIN3ros3MsgE)
                  00003df0    00000008     rtsv7M4_T_le_v4SPD16_eabi.lib : stdlib_typeinfo.cpp.obj (.const:.typeinfo:_ZTISt9type_info)
                  00003df8    00000008     driverlib.lib : sysctl.obj (.const)

.cinit     0    00003e08    00000058     
                  00003e08    0000001f     (.cinit..data.load) [load image, compression = lzss]
                  00003e27    00000001     --HOLE-- [fill = 0]
                  00003e28    0000000c     (__TI_handler_table)
                  00003e34    00000004     --HOLE-- [fill = 0]
                  00003e38    00000008     (.cinit..bss.load) [load image, compression = zero_init]
                  00003e40    00000008     (.cinit..vtable.load) [load image, compression = zero_init]
                  00003e48    00000018     (__TI_cinit_table)

.init_array 
*          0    00003e00    00000004     
                  00003e00    00000004     main.obj (.init_array)

.vtable    0    20000000    0000026c     UNINITIALIZED
                  20000000    0000026c     driverlib.lib : interrupt.obj (.vtable)

.bss       0    2000026c    0000a5f4     UNINITIALIZED
                  2000026c    00009c40     (.common:response)
                  20009eac    00000930     main.obj (.bss:nh)
                  2000a7dc    0000001c     main.obj (.bss:pwm_sub)
                  2000a7f8    00000014     main.obj (.bss:force_pub)
                  2000a80c    00000014     main.obj (.bss:motor_pub)
                  2000a820    00000010     (.common:rxBuffer)
                  2000a830    00000010     (.common:txBuffer)
                  2000a840    00000008     main.obj (.bss:cur_msg)
                  2000a848    00000008     main.obj (.bss:str_msg)
                  2000a850    00000004     (.common:Direction)
                  2000a854    00000004     (.common:Position)
                  2000a858    00000004     (.common:Velocity)
                  2000a85c    00000004     (.common:ui32Load)

.stack     0    2000a860    00000400     UNINITIALIZED
                  2000a860    00000004     rtsv7M4_T_le_v4SPD16_eabi.lib : boot_cortex_m.c.obj (.stack)
                  2000a864    000003fc     --HOLE--

.sysmem    0    2000ac60    00000400     UNINITIALIZED
                  2000ac60    00000008     rtsv7M4_T_le_v4SPD16_eabi.lib : memory.c.obj (.sysmem)
                  2000ac68    000003f8     --HOLE--

.data      0    2000b060    0000003c     UNINITIALIZED
                  2000b060    00000020     main.obj (.data)
                  2000b080    0000000c     rtsv7M4_T_le_v4SPD16_eabi.lib : memory.c.obj (.data:$O1$$)
                  2000b08c    00000008                                   : _lock.c.obj (.data:$O1$$)
                  2000b094    00000008     RosTivaHwdLib.lib : tivac_hardware.obj (.data)

MODULE SUMMARY

       Module                          code    ro data   rw data
       ------                          ----    -------   -------
    ./
       main.obj                        8182    1056      42484  
       ringbuf.obj                     780     0         0      
       tm4c1294ncpdt_startup_ccs.obj   12      520       0      
    +--+-------------------------------+-------+---------+---------+
       Total:                          8974    1576      42484  
                                                                
    /home/neoklisv/ti/ccsv8/tools/compiler/ti-cgt-arm_18.1.4.LTS/lib/rtsv7M4_T_le_v4SPD16_eabi.lib
       memory.c.obj                    768     0         12     
       fd_mul_t2.asm.obj               252     0         0      
       typeinfo.c.obj                  36      127       0      
       memcpy_t2.asm.obj               156     0         0      
       memset_t2.asm.obj               122     0         0      
       fd_tos_t2.asm.obj               110     0         0      
       copy_decompress_lzss.c.obj      104     0         0      
       autoinit.c.obj                  96      0         0      
       i_divt2.asm.obj                 94      0         0      
       boot_cortex_m.c.obj             56      0         0      
       i_tofd_t2.asm.obj               46      0         0      
       stdlib_typeinfo.cpp.obj         2       21        0      
       strlen.c.obj                    20      0         0      
       copy_decompress_none.c.obj      14      0         0      
       copy_zero_init.c.obj            12      0         0      
       new.cpp.obj                     12      0         0      
       _lock.c.obj                     2       0         8      
       pure_virt.c.obj                 6       0         0      
       error.c.obj                     4       0         0      
       exit.c.obj                      4       0         0      
       pre_init.c.obj                  4       0         0      
       div0.asm.obj                    2       0         0      
    +--+-------------------------------+-------+---------+---------+
       Total:                          1922    148       20     
                                                                
    /home/neoklisv/tiva/driverlib/ccs/Debug/driverlib.lib
       sysctl.obj                      674     596       0      
       interrupt.obj                   188     112       620    
       gpio.obj                        504     144       0      
       uart.obj                        282     128       0      
       pwm.obj                         130     0         0      
       qei.obj                         106     0         0      
       systick.obj                     84      0         0      
       timer.obj                       44      0         0      
       fpu.obj                         32      0         0      
       cpu.obj                         24      0         0      
    +--+-------------------------------+-------+---------+---------+
       Total:                          2068    980       620    
                                                                
    /home/neoklisv/workspace_v8/RosTivaHwdLib/Debug/RosTivaHwdLib.lib
       time.obj                        192     0         0      
       tivac_hardware.obj              0       0         40     
    +--+-------------------------------+-------+---------+---------+
       Total:                          192     0         40     
                                                                
       Heap:                           0       0         1024   
       Stack:                          0       0         1024   
       Linker Generated:               0       83        0      
    +--+-------------------------------+-------+---------+---------+
       Grand Total:                    13156   2787      45212  


LINKER GENERATED COPY TABLES

__TI_cinit_table @ 00003e48 records: 3, size/record: 8, table size: 24
	.data: load addr=00003e08, load size=0000001f bytes, run addr=2000b060, run size=0000003c bytes, compression=lzss
	.bss: load addr=00003e38, load size=00000008 bytes, run addr=2000026c, run size=0000a5f4 bytes, compression=zero_init
	.vtable: load addr=00003e40, load size=00000008 bytes, run addr=20000000, run size=0000026c bytes, compression=zero_init


LINKER GENERATED HANDLER TABLE

__TI_handler_table @ 00003e28 records: 3, size/record: 4, table size: 12
	index: 0, handler: __TI_zero_init
	index: 1, handler: __TI_decompress_lzss
	index: 2, handler: __TI_decompress_none


GLOBAL SYMBOLS: SORTED ALPHABETICALLY BY Name 

address   name                                                                                                            
-------   ----                                                                                                            
00003573  C$$EXIT                                                                                                         
00003463  CPUcpsid                                                                                                        
0000346f  CPUcpsie                                                                                                        
2000b070  D_term                                                                                                          
2000a850  Direction                                                                                                       
0000325d  FPUEnable                                                                                                       
0000326d  FPULazyStackingEnable                                                                                           
00002eed  GPIODirModeSet                                                                                                  
000018a5  GPIOPadConfigSet                                                                                                
00002a9d  GPIOPinConfigure                                                                                                
000030e9  GPIOPinTypeGPIOOutput                                                                                           
000031f1  GPIOPinTypePWM                                                                                                  
00003203  GPIOPinTypeQEI                                                                                                  
00003215  GPIOPinTypeUART                                                                                                 
00003539  GPIOPinWrite                                                                                                    
000025a5  IntEnable                                                                                                       
0000327d  IntMasterDisable                                                                                                
0000328d  IntMasterEnable                                                                                                 
00002d95  IntRegister                                                                                                     
2000b07c  LastPosition                                                                                                    
00003179  PWMClockSet                                                                                                     
00002fb1  PWMGenConfigure                                                                                                 
0000347b  PWMGenEnable                                                                                                    
0000329d  PWMGenPeriodSet                                                                                                 
00003227  PWMOutputState                                                                                                  
00003075  PWMPulseWidthSet                                                                                                
2000b06c  P_term                                                                                                          
2000a854  Position                                                                                                        
000033ad  QEIConfigure                                                                                                    
000033bb  QEIDirectionGet                                                                                                 
000034db  QEIDisable                                                                                                      
000034e5  QEIEnable                                                                                                       
000034ef  QEIIntDisable                                                                                                   
0000354b  QEIPositionGet                                                                                                  
0000354f  QEIPositionSet                                                                                                  
000032ad  QEIVelocityConfigure                                                                                            
000034f9  QEIVelocityDisable                                                                                              
00003503  QEIVelocityEnable                                                                                               
00003553  QEIVelocityGet                                                                                                  
000034cf  ResetISR                                                                                                        
00000dd1  RingBufAdvanceRead                                                                                              
00000dff  RingBufAdvanceWrite                                                                                             
00000d2b  RingBufContigFree                                                                                               
00000cfd  RingBufContigUsed                                                                                               
00000c6b  RingBufEmpty                                                                                                    
00000c95  RingBufFlush                                                                                                    
00000ce7  RingBufFree                                                                                                     
00000c31  RingBufFull                                                                                                     
00000ecf  RingBufInit                                                                                                     
00000d9b  RingBufRead                                                                                                     
00000d75  RingBufReadOne                                                                                                  
00000d67  RingBufSize                                                                                                     
00000cb5  RingBufUsed                                                                                                     
00000e99  RingBufWrite                                                                                                    
00000e73  RingBufWriteOne                                                                                                 
00003e00  SHT$$INIT_ARRAY$$Base                                                                                           
00003e04  SHT$$INIT_ARRAY$$Limit                                                                                          
2000b064  Setpoint                                                                                                        
0000118d  SysCtlClockFreqSet                                                                                              
0000353f  SysCtlDelay                                                                                                     
00002dc9  SysCtlPeripheralEnable                                                                                          
0000318d  SysTickEnable                                                                                                   
000031a1  SysTickIntEnable                                                                                                
000030b1  SysTickIntRegister                                                                                              
000032bd  SysTickPeriodSet                                                                                                
0000041b  Timer0IntHandler                                                                                                
000033c9  TimerEnable                                                                                                     
00003557  TimerIntClear                                                                                                   
00003521  TimerIntEnable                                                                                                  
00003239  TimerLoadSet                                                                                                    
000033d7  UARTCharGetNonBlocking                                                                                          
000033e5  UARTCharPutNonBlocking                                                                                          
00002b2d  UARTConfigSetExpClk                                                                                             
00002fd5  UARTDisable                                                                                                     
000031b5  UARTEnable                                                                                                      
0000350d  UARTFIFODisable                                                                                                 
0000355b  UARTIntClear                                                                                                    
00003529  UARTIntEnable                                                                                                   
00003101  UARTIntRegister                                                                                                 
00003517  UARTIntStatus                                                                                                   
00003487  UARTTxIntModeSet                                                                                                
2000a858  Velocity                                                                                                        
00000435  _Z10softbridgev                                                                                                 
0000024d  _Z11ros_handlerRKN8std_msgs5Int32E                                                                              
00000213  _Z12handle_forcev                                                                                               
00000209  _Z12handle_motori                                                                                               
000005ed  _Z7hbridgev                                                                                                     
000033f3  _ZN10__cxxabiv117__class_type_infoD0Ev                                                                          
0000355f  _ZN10__cxxabiv117__class_type_infoD1Ev                                                                          
0000355f  _ZN10__cxxabiv117__class_type_infoD2Ev                                                                          
00003401  _ZN10__cxxabiv120__si_class_type_infoD0Ev                                                                       
00003563  _ZN10__cxxabiv120__si_class_type_infoD1Ev                                                                       
00003563  _ZN10__cxxabiv120__si_class_type_infoD2Ev                                                                       
000028b5  _ZN13TivaCHardware14UARTIntHandlerEv                                                                            
000032cd  _ZN13TivaCHardware17SystickIntHandlerEv                                                                         
00001fed  _ZN13TivaCHardware4initEv                                                                                       
00003015  _ZN13TivaCHardware4readEv                                                                                       
000031c9  _ZN13TivaCHardware4timeEv                                                                                       
00002a03  _ZN13TivaCHardware5delayEj                                                                                      
00002bb5  _ZN13TivaCHardware5writeEPhi                                                                                    
00003493  _ZN13TivaCHardwareC1Ev                                                                                          
00000ef3  _ZN14rosserial_msgs20RequestParamResponse11deserializeEPh                                                       
000032dd  _ZN14rosserial_msgs20RequestParamResponse6getMD5Ev                                                              
000032ed  _ZN14rosserial_msgs20RequestParamResponse7getTypeEv                                                             
00002c35  _ZN14rosserial_msgs20RequestParamResponseC1Ev                                                                   
00002355  _ZN14rosserial_msgs3Log11deserializeEPh                                                                         
000032fd  _ZN14rosserial_msgs3Log6getMD5Ev                                                                                
0000330d  _ZN14rosserial_msgs3Log7getTypeEv                                                                               
00002f19  _ZN14rosserial_msgs3LogC1Ev                                                                                     
00001715  _ZN14rosserial_msgs9TopicInfo11deserializeEPh                                                                   
0000331d  _ZN14rosserial_msgs9TopicInfo6getMD5Ev                                                                          
0000332d  _ZN14rosserial_msgs9TopicInfo7getTypeEv                                                                         
00002c71  _ZN14rosserial_msgs9TopicInfoC1Ev                                                                               
0000340f  _ZN3ros10SubscriberIN8std_msgs5Int32EvE10getMsgTypeEv                                                           
0000341d  _ZN3ros10SubscriberIN8std_msgs5Int32EvE15getEndpointTypeEv                                                      
000030cd  _ZN3ros10SubscriberIN8std_msgs5Int32EvE8callbackEPh                                                             
0000342b  _ZN3ros10SubscriberIN8std_msgs5Int32EvE9getMsgMD5Ev                                                             
00002bf5  _ZN3ros10SubscriberIN8std_msgs5Int32EvEC1EPKcPFvRKS2_Ei                                                         
00003439  _ZN3ros11NodeHandle_I13TivaCHardwareLi25ELi25ELi512ELi512EE11getHardwareEv                                      
0000157f  _ZN3ros11NodeHandle_I13TivaCHardwareLi25ELi25ELi512ELi512EE15negotiateTopicsEv                                  
00002e31  _ZN3ros11NodeHandle_I13TivaCHardwareLi25ELi25ELi512ELi512EE15requestSyncTimeEv                                  
00002dfd  _ZN3ros11NodeHandle_I13TivaCHardwareLi25ELi25ELi512ELi512EE3logEcPKc                                            
0000260d  _ZN3ros11NodeHandle_I13TivaCHardwareLi25ELi25ELi512ELi512EE6setNowERNS_4TimeE                                   
000019d9  _ZN3ros11NodeHandle_I13TivaCHardwareLi25ELi25ELi512ELi512EE7publishEiPKNS_3MsgE                                 
00002e91  _ZN3ros11NodeHandle_I13TivaCHardwareLi25ELi25ELi512ELi512EE8initNodeEv                                          
0000324b  _ZN3ros11NodeHandle_I13TivaCHardwareLi25ELi25ELi512ELi512EE8logerrorEPKc                                        
00000891  _ZN3ros11NodeHandle_I13TivaCHardwareLi25ELi25ELi512ELi512EE8spinOnceEv                                          
000024c5  _ZN3ros11NodeHandle_I13TivaCHardwareLi25ELi25ELi512ELi512EE8syncTimeEPh                                         
000029b1  _ZN3ros11NodeHandle_I13TivaCHardwareLi25ELi25ELi512ELi512EE9advertiseERNS_9PublisherE                           
0000333d  _ZN3ros11NodeHandle_I13TivaCHardwareLi25ELi25ELi512ELi512EE9connectedEv                                         
00002a51  _ZN3ros11NodeHandle_I13TivaCHardwareLi25ELi25ELi512ELi512EE9subscribeINS_10SubscriberIN8std_msgs5Int32EvEEEEbRT_
00001e1d  _ZN3ros11NodeHandle_I13TivaCHardwareLi25ELi25ELi512ELi512EEC1Ev                                                 
00003119  _ZN3ros11Subscriber_C1Ev                                                                                        
0000349f  _ZN3ros11Subscriber_C2Ev                                                                                        
00003131  _ZN3ros15NodeHandleBase_C1Ev                                                                                    
000034ab  _ZN3ros15NodeHandleBase_C2Ev                                                                                    
00002145  _ZN3ros16normalizeSecNSecERjS0_                                                                                 
00002cad  _ZN3ros3Msg8arrToVarIjPhEEvRT_T0_                                                                               
00002e61  _ZN3ros3Msg8varToArrIPhjEEvT_T0_                                                                                
00003149  _ZN3ros3MsgC1Ev                                                                                                 
000034b7  _ZN3ros3MsgC2Ev                                                                                                 
000020c1  _ZN3ros4Time8fromNSecEi                                                                                         
00003161  _ZN3ros4TimeC1Ev                                                                                                
00002119  _ZN3ros4TimemIERKNS_8DurationE                                                                                  
000020ed  _ZN3ros4TimepLERKNS_8DurationE                                                                                  
00003447  _ZN3ros9Publisher15getEndpointTypeEv                                                                            
00003093  _ZN3ros9Publisher7publishEPKNS_3MsgE                                                                            
00002f69  _ZN3ros9PublisherC1EPKcPNS_3MsgEi                                                                               
00002181  _ZN8std_msgs4Time11deserializeEPh                                                                               
0000334d  _ZN8std_msgs4Time6getMD5Ev                                                                                      
0000335d  _ZN8std_msgs4Time7getTypeEv                                                                                     
00003035  _ZN8std_msgs4TimeC1Ev                                                                                           
0000273d  _ZN8std_msgs5Int3211deserializeEPh                                                                              
0000336d  _ZN8std_msgs5Int326getMD5Ev                                                                                     
0000337d  _ZN8std_msgs5Int327getTypeEv                                                                                    
00003055  _ZN8std_msgs5Int32C1Ev                                                                                          
0000279b  _ZN8std_msgs7Float3211deserializeEPh                                                                            
0000338d  _ZN8std_msgs7Float326getMD5Ev                                                                                   
0000339d  _ZN8std_msgs7Float327getTypeEv                                                                                  
00002f8d  _ZN8std_msgs7Float32C1Ev                                                                                        
0000138d  _ZNK14rosserial_msgs20RequestParamResponse9serializeEPh                                                         
00002857  _ZNK14rosserial_msgs3Log9serializeEPh                                                                           
00001af5  _ZNK14rosserial_msgs9TopicInfo9serializeEPh                                                                     
000022bb  _ZNK8std_msgs4Time9serializeEPh                                                                                 
00002909  _ZNK8std_msgs5Int329serializeEPh                                                                                
0000295d  _ZNK8std_msgs7Float329serializeEPh                                                                              
0000118b  _ZNSt9type_infoD1Ev                                                                                             
0000118b  _ZNSt9type_infoD2Ev                                                                                             
00003573  _ZSt17__throw_bad_allocv                                                                                        
00003d54  _ZTIN10__cxxabiv117__class_type_infoE                                                                           
00003d60  _ZTIN10__cxxabiv120__si_class_type_infoE                                                                        
00003d6c  _ZTIN14rosserial_msgs20RequestParamResponseE                                                                    
00003d78  _ZTIN14rosserial_msgs3LogE                                                                                      
00003d84  _ZTIN14rosserial_msgs9TopicInfoE                                                                                
00003d90  _ZTIN3ros10SubscriberIN8std_msgs5Int32EvEE                                                                      
00003d9c  _ZTIN3ros11NodeHandle_I13TivaCHardwareLi25ELi25ELi512ELi512EEE                                                  
00003dd8  _ZTIN3ros11Subscriber_E                                                                                         
00003de0  _ZTIN3ros15NodeHandleBase_E                                                                                     
00003de8  _ZTIN3ros3MsgE                                                                                                  
00003da8  _ZTIN8std_msgs4TimeE                                                                                            
00003db4  _ZTIN8std_msgs5Int32E                                                                                           
00003dc0  _ZTIN8std_msgs7Float32E                                                                                         
00003df0  _ZTISt9type_info                                                                                                
00003a2d  _ZTSN10__cxxabiv117__class_type_infoE                                                                           
00003a08  _ZTSN10__cxxabiv120__si_class_type_infoE                                                                        
000039b8  _ZTSN14rosserial_msgs20RequestParamResponseE                                                                    
00003c58  _ZTSN14rosserial_msgs3LogE                                                                                      
00003b15  _ZTSN14rosserial_msgs9TopicInfoE                                                                                
000039e1  _ZTSN3ros10SubscriberIN8std_msgs5Int32EvEE                                                                      
00003914  _ZTSN3ros11NodeHandle_I13TivaCHardwareLi25ELi25ELi512ELi512EEE                                                  
00003c6f  _ZTSN3ros11Subscriber_E                                                                                         
00003b67  _ZTSN3ros15NodeHandleBase_E                                                                                     
00003dcc  _ZTSN3ros3MsgE                                                                                                  
00003cf6  _ZTSN8std_msgs4TimeE                                                                                            
00003cd3  _ZTSN8std_msgs5Int32E                                                                                           
00003c83  _ZTSN8std_msgs7Float32E                                                                                         
00003d45  _ZTSSt9type_info                                                                                                
00003d08  _ZTVN10__cxxabiv117__class_type_infoE                                                                           
00003d18  _ZTVN10__cxxabiv120__si_class_type_infoE                                                                        
00003b80  _ZTVN14rosserial_msgs20RequestParamResponseE                                                                    
00003b98  _ZTVN14rosserial_msgs3LogE                                                                                      
00003bb0  _ZTVN14rosserial_msgs9TopicInfoE                                                                                
00003bc8  _ZTVN3ros10SubscriberIN8std_msgs5Int32EvEE                                                                      
00003c98  _ZTVN3ros11NodeHandle_I13TivaCHardwareLi25ELi25ELi512ELi512EEE                                                  
00003be0  _ZTVN3ros11Subscriber_E                                                                                         
00003cac  _ZTVN3ros15NodeHandleBase_E                                                                                     
00003bf8  _ZTVN3ros3MsgE                                                                                                  
00003c10  _ZTVN8std_msgs4TimeE                                                                                            
00003c28  _ZTVN8std_msgs5Int32E                                                                                           
00003c40  _ZTVN8std_msgs7Float32E                                                                                         
00003a4f  _ZZN14rosserial_msgs20RequestParamResponse6getMD5EvEs                                                           
00003a70  _ZZN14rosserial_msgs3Log6getMD5EvEs                                                                             
00003cc0  _ZZN14rosserial_msgs3Log7getTypeEvEs                                                                            
00003b7f  _ZZN14rosserial_msgs3LogC1EvEs                                                                                  
00003a91  _ZZN14rosserial_msgs9TopicInfo6getMD5EvEs                                                                       
00003b4e  _ZZN14rosserial_msgs9TopicInfo7getTypeEvEs                                                                      
00003c97  _ZZN14rosserial_msgs9TopicInfoC1EvEs                                                                            
0000394f  _ZZN3ros11NodeHandle_I13TivaCHardwareLi25ELi25ELi512ELi512EE7publishEiPKNS_3MsgEEs                              
00003ab2  _ZZN8std_msgs4Time6getMD5EvEs                                                                                   
00003d37  _ZZN8std_msgs4Time7getTypeEvEs                                                                                  
00003ad3  _ZZN8std_msgs5Int326getMD5EvEs                                                                                  
00003d28  _ZZN8std_msgs5Int327getTypeEvEs                                                                                 
00003af4  _ZZN8std_msgs7Float326getMD5EvEs                                                                                
00003ce5  _ZZN8std_msgs7Float327getTypeEvEs                                                                               
00003531  _ZdlPv                                                                                                          
00003567  _ZdlPvj                                                                                                         
2000ac60  __STACK_END                                                                                                     
00000400  __STACK_SIZE                                                                                                    
2000aa60  __STACK_TOP                                                                                                     
00000400  __SYSMEM_SIZE                                                                                                   
00003e48  __TI_CINIT_Base                                                                                                 
00003e60  __TI_CINIT_Limit                                                                                                
00003e28  __TI_Handler_Table_Base                                                                                         
00003e34  __TI_Handler_Table_Limit                                                                                        
000026dd  __TI_auto_init_nobinit                                                                                          
00002675  __TI_decompress_lzss                                                                                            
00003455  __TI_decompress_none                                                                                            
ffffffff  __TI_pprof_out_hndl                                                                                             
ffffffff  __TI_prof_data_size                                                                                             
ffffffff  __TI_prof_data_start                                                                                            
00000000  __TI_static_base__                                                                                              
000034c3  __TI_zero_init                                                                                                  
0000356b  __abort_execution                                                                                               
00002535  __aeabi_d2f                                                                                                     
00001d21  __aeabi_dmul                                                                                                    
00002ebf  __aeabi_i2d                                                                                                     
000027f9  __aeabi_idiv                                                                                                    
00001c0b  __aeabi_idiv0                                                                                                   
000027f9  __aeabi_idivmod                                                                                                 
00001c0b  __aeabi_ldiv0                                                                                                   
000023d3  __aeabi_memclr                                                                                                  
000023d3  __aeabi_memclr4                                                                                                 
000023d3  __aeabi_memclr8                                                                                                 
0000221f  __aeabi_memcpy                                                                                                  
0000221f  __aeabi_memcpy4                                                                                                 
0000221f  __aeabi_memcpy8                                                                                                 
000023d5  __aeabi_memset                                                                                                  
000023d5  __aeabi_memset4                                                                                                 
000023d5  __aeabi_memset8                                                                                                 
ffffffff  __binit__                                                                                                       
ffffffff  __c_args__                                                                                                      
00003545  __cxa_pure_virtual                                                                                              
UNDEFED   __mpu_init                                                                                                      
2000a860  __stack                                                                                                         
000007fd  __sti___8_main_cpp_53aba4d5                                                                                     
00002d25  _c_int00_noargs                                                                                                 
2000b08c  _lock                                                                                                           
000019d7  _nop                                                                                                            
2000ac60  _sys_memory                                                                                                     
UNDEFED   _system_post_cinit                                                                                              
0000356f  _system_pre_init                                                                                                
2000b090  _unlock                                                                                                         
00003573  abort                                                                                                           
ffffffff  binit                                                                                                           
2000a840  cur_msg                                                                                                         
2000b068  error                                                                                                           
2000a7f8  force_pub                                                                                                       
00001f15  free                                                                                                            
20000000  g_pfnRAMVectors                                                                                                 
00000000  g_pfnVectors                                                                                                    
2000b098  g_ui32heartbeat                                                                                                 
2000b094  g_ui32milliseconds                                                                                              
0000025f  main                                                                                                            
0000244d  malloc                                                                                                          
0000221f  memcpy                                                                                                          
000023db  memset                                                                                                          
00002d5d  minit                                                                                                           
2000a80c  motor_pub                                                                                                       
20009eac  nh                                                                                                              
2000a7dc  pwm_sub                                                                                                         
00001c0d  realloc                                                                                                         
2000026c  response                                                                                                        
2000b078  response_index                                                                                                  
2000a820  rxBuffer                                                                                                        
2000a848  str_msg                                                                                                         
000031dd  strlen                                                                                                          
2000a830  txBuffer                                                                                                        
2000b074  u                                                                                                               
2000a85c  ui32Load                                                                                                        
2000b060  ui8PinData                                                                                                      


GLOBAL SYMBOLS: SORTED BY Symbol Address 

address   name                                                                                                            
-------   ----                                                                                                            
00000000  __TI_static_base__                                                                                              
00000000  g_pfnVectors                                                                                                    
00000209  _Z12handle_motori                                                                                               
00000213  _Z12handle_forcev                                                                                               
0000024d  _Z11ros_handlerRKN8std_msgs5Int32E                                                                              
0000025f  main                                                                                                            
00000400  __STACK_SIZE                                                                                                    
00000400  __SYSMEM_SIZE                                                                                                   
0000041b  Timer0IntHandler                                                                                                
00000435  _Z10softbridgev                                                                                                 
000005ed  _Z7hbridgev                                                                                                     
000007fd  __sti___8_main_cpp_53aba4d5                                                                                     
00000891  _ZN3ros11NodeHandle_I13TivaCHardwareLi25ELi25ELi512ELi512EE8spinOnceEv                                          
00000c31  RingBufFull                                                                                                     
00000c6b  RingBufEmpty                                                                                                    
00000c95  RingBufFlush                                                                                                    
00000cb5  RingBufUsed                                                                                                     
00000ce7  RingBufFree                                                                                                     
00000cfd  RingBufContigUsed                                                                                               
00000d2b  RingBufContigFree                                                                                               
00000d67  RingBufSize                                                                                                     
00000d75  RingBufReadOne                                                                                                  
00000d9b  RingBufRead                                                                                                     
00000dd1  RingBufAdvanceRead                                                                                              
00000dff  RingBufAdvanceWrite                                                                                             
00000e73  RingBufWriteOne                                                                                                 
00000e99  RingBufWrite                                                                                                    
00000ecf  RingBufInit                                                                                                     
00000ef3  _ZN14rosserial_msgs20RequestParamResponse11deserializeEPh                                                       
0000118b  _ZNSt9type_infoD1Ev                                                                                             
0000118b  _ZNSt9type_infoD2Ev                                                                                             
0000118d  SysCtlClockFreqSet                                                                                              
0000138d  _ZNK14rosserial_msgs20RequestParamResponse9serializeEPh                                                         
0000157f  _ZN3ros11NodeHandle_I13TivaCHardwareLi25ELi25ELi512ELi512EE15negotiateTopicsEv                                  
00001715  _ZN14rosserial_msgs9TopicInfo11deserializeEPh                                                                   
000018a5  GPIOPadConfigSet                                                                                                
000019d7  _nop                                                                                                            
000019d9  _ZN3ros11NodeHandle_I13TivaCHardwareLi25ELi25ELi512ELi512EE7publishEiPKNS_3MsgE                                 
00001af5  _ZNK14rosserial_msgs9TopicInfo9serializeEPh                                                                     
00001c0b  __aeabi_idiv0                                                                                                   
00001c0b  __aeabi_ldiv0                                                                                                   
00001c0d  realloc                                                                                                         
00001d21  __aeabi_dmul                                                                                                    
00001e1d  _ZN3ros11NodeHandle_I13TivaCHardwareLi25ELi25ELi512ELi512EEC1Ev                                                 
00001f15  free                                                                                                            
00001fed  _ZN13TivaCHardware4initEv                                                                                       
000020c1  _ZN3ros4Time8fromNSecEi                                                                                         
000020ed  _ZN3ros4TimepLERKNS_8DurationE                                                                                  
00002119  _ZN3ros4TimemIERKNS_8DurationE                                                                                  
00002145  _ZN3ros16normalizeSecNSecERjS0_                                                                                 
00002181  _ZN8std_msgs4Time11deserializeEPh                                                                               
0000221f  __aeabi_memcpy                                                                                                  
0000221f  __aeabi_memcpy4                                                                                                 
0000221f  __aeabi_memcpy8                                                                                                 
0000221f  memcpy                                                                                                          
000022bb  _ZNK8std_msgs4Time9serializeEPh                                                                                 
00002355  _ZN14rosserial_msgs3Log11deserializeEPh                                                                         
000023d3  __aeabi_memclr                                                                                                  
000023d3  __aeabi_memclr4                                                                                                 
000023d3  __aeabi_memclr8                                                                                                 
000023d5  __aeabi_memset                                                                                                  
000023d5  __aeabi_memset4                                                                                                 
000023d5  __aeabi_memset8                                                                                                 
000023db  memset                                                                                                          
0000244d  malloc                                                                                                          
000024c5  _ZN3ros11NodeHandle_I13TivaCHardwareLi25ELi25ELi512ELi512EE8syncTimeEPh                                         
00002535  __aeabi_d2f                                                                                                     
000025a5  IntEnable                                                                                                       
0000260d  _ZN3ros11NodeHandle_I13TivaCHardwareLi25ELi25ELi512ELi512EE6setNowERNS_4TimeE                                   
00002675  __TI_decompress_lzss                                                                                            
000026dd  __TI_auto_init_nobinit                                                                                          
0000273d  _ZN8std_msgs5Int3211deserializeEPh                                                                              
0000279b  _ZN8std_msgs7Float3211deserializeEPh                                                                            
000027f9  __aeabi_idiv                                                                                                    
000027f9  __aeabi_idivmod                                                                                                 
00002857  _ZNK14rosserial_msgs3Log9serializeEPh                                                                           
000028b5  _ZN13TivaCHardware14UARTIntHandlerEv                                                                            
00002909  _ZNK8std_msgs5Int329serializeEPh                                                                                
0000295d  _ZNK8std_msgs7Float329serializeEPh                                                                              
000029b1  _ZN3ros11NodeHandle_I13TivaCHardwareLi25ELi25ELi512ELi512EE9advertiseERNS_9PublisherE                           
00002a03  _ZN13TivaCHardware5delayEj                                                                                      
00002a51  _ZN3ros11NodeHandle_I13TivaCHardwareLi25ELi25ELi512ELi512EE9subscribeINS_10SubscriberIN8std_msgs5Int32EvEEEEbRT_
00002a9d  GPIOPinConfigure                                                                                                
00002b2d  UARTConfigSetExpClk                                                                                             
00002bb5  _ZN13TivaCHardware5writeEPhi                                                                                    
00002bf5  _ZN3ros10SubscriberIN8std_msgs5Int32EvEC1EPKcPFvRKS2_Ei                                                         
00002c35  _ZN14rosserial_msgs20RequestParamResponseC1Ev                                                                   
00002c71  _ZN14rosserial_msgs9TopicInfoC1Ev                                                                               
00002cad  _ZN3ros3Msg8arrToVarIjPhEEvRT_T0_                                                                               
00002d25  _c_int00_noargs                                                                                                 
00002d5d  minit                                                                                                           
00002d95  IntRegister                                                                                                     
00002dc9  SysCtlPeripheralEnable                                                                                          
00002dfd  _ZN3ros11NodeHandle_I13TivaCHardwareLi25ELi25ELi512ELi512EE3logEcPKc                                            
00002e31  _ZN3ros11NodeHandle_I13TivaCHardwareLi25ELi25ELi512ELi512EE15requestSyncTimeEv                                  
00002e61  _ZN3ros3Msg8varToArrIPhjEEvT_T0_                                                                                
00002e91  _ZN3ros11NodeHandle_I13TivaCHardwareLi25ELi25ELi512ELi512EE8initNodeEv                                          
00002ebf  __aeabi_i2d                                                                                                     
00002eed  GPIODirModeSet                                                                                                  
00002f19  _ZN14rosserial_msgs3LogC1Ev                                                                                     
00002f69  _ZN3ros9PublisherC1EPKcPNS_3MsgEi                                                                               
00002f8d  _ZN8std_msgs7Float32C1Ev                                                                                        
00002fb1  PWMGenConfigure                                                                                                 
00002fd5  UARTDisable                                                                                                     
00003015  _ZN13TivaCHardware4readEv                                                                                       
00003035  _ZN8std_msgs4TimeC1Ev                                                                                           
00003055  _ZN8std_msgs5Int32C1Ev                                                                                          
00003075  PWMPulseWidthSet                                                                                                
00003093  _ZN3ros9Publisher7publishEPKNS_3MsgE                                                                            
000030b1  SysTickIntRegister                                                                                              
000030cd  _ZN3ros10SubscriberIN8std_msgs5Int32EvE8callbackEPh                                                             
000030e9  GPIOPinTypeGPIOOutput                                                                                           
00003101  UARTIntRegister                                                                                                 
00003119  _ZN3ros11Subscriber_C1Ev                                                                                        
00003131  _ZN3ros15NodeHandleBase_C1Ev                                                                                    
00003149  _ZN3ros3MsgC1Ev                                                                                                 
00003161  _ZN3ros4TimeC1Ev                                                                                                
00003179  PWMClockSet                                                                                                     
0000318d  SysTickEnable                                                                                                   
000031a1  SysTickIntEnable                                                                                                
000031b5  UARTEnable                                                                                                      
000031c9  _ZN13TivaCHardware4timeEv                                                                                       
000031dd  strlen                                                                                                          
000031f1  GPIOPinTypePWM                                                                                                  
00003203  GPIOPinTypeQEI                                                                                                  
00003215  GPIOPinTypeUART                                                                                                 
00003227  PWMOutputState                                                                                                  
00003239  TimerLoadSet                                                                                                    
0000324b  _ZN3ros11NodeHandle_I13TivaCHardwareLi25ELi25ELi512ELi512EE8logerrorEPKc                                        
0000325d  FPUEnable                                                                                                       
0000326d  FPULazyStackingEnable                                                                                           
0000327d  IntMasterDisable                                                                                                
0000328d  IntMasterEnable                                                                                                 
0000329d  PWMGenPeriodSet                                                                                                 
000032ad  QEIVelocityConfigure                                                                                            
000032bd  SysTickPeriodSet                                                                                                
000032cd  _ZN13TivaCHardware17SystickIntHandlerEv                                                                         
000032dd  _ZN14rosserial_msgs20RequestParamResponse6getMD5Ev                                                              
000032ed  _ZN14rosserial_msgs20RequestParamResponse7getTypeEv                                                             
000032fd  _ZN14rosserial_msgs3Log6getMD5Ev                                                                                
0000330d  _ZN14rosserial_msgs3Log7getTypeEv                                                                               
0000331d  _ZN14rosserial_msgs9TopicInfo6getMD5Ev                                                                          
0000332d  _ZN14rosserial_msgs9TopicInfo7getTypeEv                                                                         
0000333d  _ZN3ros11NodeHandle_I13TivaCHardwareLi25ELi25ELi512ELi512EE9connectedEv                                         
0000334d  _ZN8std_msgs4Time6getMD5Ev                                                                                      
0000335d  _ZN8std_msgs4Time7getTypeEv                                                                                     
0000336d  _ZN8std_msgs5Int326getMD5Ev                                                                                     
0000337d  _ZN8std_msgs5Int327getTypeEv                                                                                    
0000338d  _ZN8std_msgs7Float326getMD5Ev                                                                                   
0000339d  _ZN8std_msgs7Float327getTypeEv                                                                                  
000033ad  QEIConfigure                                                                                                    
000033bb  QEIDirectionGet                                                                                                 
000033c9  TimerEnable                                                                                                     
000033d7  UARTCharGetNonBlocking                                                                                          
000033e5  UARTCharPutNonBlocking                                                                                          
000033f3  _ZN10__cxxabiv117__class_type_infoD0Ev                                                                          
00003401  _ZN10__cxxabiv120__si_class_type_infoD0Ev                                                                       
0000340f  _ZN3ros10SubscriberIN8std_msgs5Int32EvE10getMsgTypeEv                                                           
0000341d  _ZN3ros10SubscriberIN8std_msgs5Int32EvE15getEndpointTypeEv                                                      
0000342b  _ZN3ros10SubscriberIN8std_msgs5Int32EvE9getMsgMD5Ev                                                             
00003439  _ZN3ros11NodeHandle_I13TivaCHardwareLi25ELi25ELi512ELi512EE11getHardwareEv                                      
00003447  _ZN3ros9Publisher15getEndpointTypeEv                                                                            
00003455  __TI_decompress_none                                                                                            
00003463  CPUcpsid                                                                                                        
0000346f  CPUcpsie                                                                                                        
0000347b  PWMGenEnable                                                                                                    
00003487  UARTTxIntModeSet                                                                                                
00003493  _ZN13TivaCHardwareC1Ev                                                                                          
0000349f  _ZN3ros11Subscriber_C2Ev                                                                                        
000034ab  _ZN3ros15NodeHandleBase_C2Ev                                                                                    
000034b7  _ZN3ros3MsgC2Ev                                                                                                 
000034c3  __TI_zero_init                                                                                                  
000034cf  ResetISR                                                                                                        
000034db  QEIDisable                                                                                                      
000034e5  QEIEnable                                                                                                       
000034ef  QEIIntDisable                                                                                                   
000034f9  QEIVelocityDisable                                                                                              
00003503  QEIVelocityEnable                                                                                               
0000350d  UARTFIFODisable                                                                                                 
00003517  UARTIntStatus                                                                                                   
00003521  TimerIntEnable                                                                                                  
00003529  UARTIntEnable                                                                                                   
00003531  _ZdlPv                                                                                                          
00003539  GPIOPinWrite                                                                                                    
0000353f  SysCtlDelay                                                                                                     
00003545  __cxa_pure_virtual                                                                                              
0000354b  QEIPositionGet                                                                                                  
0000354f  QEIPositionSet                                                                                                  
00003553  QEIVelocityGet                                                                                                  
00003557  TimerIntClear                                                                                                   
0000355b  UARTIntClear                                                                                                    
0000355f  _ZN10__cxxabiv117__class_type_infoD1Ev                                                                          
0000355f  _ZN10__cxxabiv117__class_type_infoD2Ev                                                                          
00003563  _ZN10__cxxabiv120__si_class_type_infoD1Ev                                                                       
00003563  _ZN10__cxxabiv120__si_class_type_infoD2Ev                                                                       
00003567  _ZdlPvj                                                                                                         
0000356b  __abort_execution                                                                                               
0000356f  _system_pre_init                                                                                                
00003573  C$$EXIT                                                                                                         
00003573  _ZSt17__throw_bad_allocv                                                                                        
00003573  abort                                                                                                           
00003914  _ZTSN3ros11NodeHandle_I13TivaCHardwareLi25ELi25ELi512ELi512EEE                                                  
0000394f  _ZZN3ros11NodeHandle_I13TivaCHardwareLi25ELi25ELi512ELi512EE7publishEiPKNS_3MsgEEs                              
000039b8  _ZTSN14rosserial_msgs20RequestParamResponseE                                                                    
000039e1  _ZTSN3ros10SubscriberIN8std_msgs5Int32EvEE                                                                      
00003a08  _ZTSN10__cxxabiv120__si_class_type_infoE                                                                        
00003a2d  _ZTSN10__cxxabiv117__class_type_infoE                                                                           
00003a4f  _ZZN14rosserial_msgs20RequestParamResponse6getMD5EvEs                                                           
00003a70  _ZZN14rosserial_msgs3Log6getMD5EvEs                                                                             
00003a91  _ZZN14rosserial_msgs9TopicInfo6getMD5EvEs                                                                       
00003ab2  _ZZN8std_msgs4Time6getMD5EvEs                                                                                   
00003ad3  _ZZN8std_msgs5Int326getMD5EvEs                                                                                  
00003af4  _ZZN8std_msgs7Float326getMD5EvEs                                                                                
00003b15  _ZTSN14rosserial_msgs9TopicInfoE                                                                                
00003b4e  _ZZN14rosserial_msgs9TopicInfo7getTypeEvEs                                                                      
00003b67  _ZTSN3ros15NodeHandleBase_E                                                                                     
00003b7f  _ZZN14rosserial_msgs3LogC1EvEs                                                                                  
00003b80  _ZTVN14rosserial_msgs20RequestParamResponseE                                                                    
00003b98  _ZTVN14rosserial_msgs3LogE                                                                                      
00003bb0  _ZTVN14rosserial_msgs9TopicInfoE                                                                                
00003bc8  _ZTVN3ros10SubscriberIN8std_msgs5Int32EvEE                                                                      
00003be0  _ZTVN3ros11Subscriber_E                                                                                         
00003bf8  _ZTVN3ros3MsgE                                                                                                  
00003c10  _ZTVN8std_msgs4TimeE                                                                                            
00003c28  _ZTVN8std_msgs5Int32E                                                                                           
00003c40  _ZTVN8std_msgs7Float32E                                                                                         
00003c58  _ZTSN14rosserial_msgs3LogE                                                                                      
00003c6f  _ZTSN3ros11Subscriber_E                                                                                         
00003c83  _ZTSN8std_msgs7Float32E                                                                                         
00003c97  _ZZN14rosserial_msgs9TopicInfoC1EvEs                                                                            
00003c98  _ZTVN3ros11NodeHandle_I13TivaCHardwareLi25ELi25ELi512ELi512EEE                                                  
00003cac  _ZTVN3ros15NodeHandleBase_E                                                                                     
00003cc0  _ZZN14rosserial_msgs3Log7getTypeEvEs                                                                            
00003cd3  _ZTSN8std_msgs5Int32E                                                                                           
00003ce5  _ZZN8std_msgs7Float327getTypeEvEs                                                                               
00003cf6  _ZTSN8std_msgs4TimeE                                                                                            
00003d08  _ZTVN10__cxxabiv117__class_type_infoE                                                                           
00003d18  _ZTVN10__cxxabiv120__si_class_type_infoE                                                                        
00003d28  _ZZN8std_msgs5Int327getTypeEvEs                                                                                 
00003d37  _ZZN8std_msgs4Time7getTypeEvEs                                                                                  
00003d45  _ZTSSt9type_info                                                                                                
00003d54  _ZTIN10__cxxabiv117__class_type_infoE                                                                           
00003d60  _ZTIN10__cxxabiv120__si_class_type_infoE                                                                        
00003d6c  _ZTIN14rosserial_msgs20RequestParamResponseE                                                                    
00003d78  _ZTIN14rosserial_msgs3LogE                                                                                      
00003d84  _ZTIN14rosserial_msgs9TopicInfoE                                                                                
00003d90  _ZTIN3ros10SubscriberIN8std_msgs5Int32EvEE                                                                      
00003d9c  _ZTIN3ros11NodeHandle_I13TivaCHardwareLi25ELi25ELi512ELi512EEE                                                  
00003da8  _ZTIN8std_msgs4TimeE                                                                                            
00003db4  _ZTIN8std_msgs5Int32E                                                                                           
00003dc0  _ZTIN8std_msgs7Float32E                                                                                         
00003dcc  _ZTSN3ros3MsgE                                                                                                  
00003dd8  _ZTIN3ros11Subscriber_E                                                                                         
00003de0  _ZTIN3ros15NodeHandleBase_E                                                                                     
00003de8  _ZTIN3ros3MsgE                                                                                                  
00003df0  _ZTISt9type_info                                                                                                
00003e00  SHT$$INIT_ARRAY$$Base                                                                                           
00003e04  SHT$$INIT_ARRAY$$Limit                                                                                          
00003e28  __TI_Handler_Table_Base                                                                                         
00003e34  __TI_Handler_Table_Limit                                                                                        
00003e48  __TI_CINIT_Base                                                                                                 
00003e60  __TI_CINIT_Limit                                                                                                
20000000  g_pfnRAMVectors                                                                                                 
2000026c  response                                                                                                        
20009eac  nh                                                                                                              
2000a7dc  pwm_sub                                                                                                         
2000a7f8  force_pub                                                                                                       
2000a80c  motor_pub                                                                                                       
2000a820  rxBuffer                                                                                                        
2000a830  txBuffer                                                                                                        
2000a840  cur_msg                                                                                                         
2000a848  str_msg                                                                                                         
2000a850  Direction                                                                                                       
2000a854  Position                                                                                                        
2000a858  Velocity                                                                                                        
2000a85c  ui32Load                                                                                                        
2000a860  __stack                                                                                                         
2000aa60  __STACK_TOP                                                                                                     
2000ac60  __STACK_END                                                                                                     
2000ac60  _sys_memory                                                                                                     
2000b060  ui8PinData                                                                                                      
2000b064  Setpoint                                                                                                        
2000b068  error                                                                                                           
2000b06c  P_term                                                                                                          
2000b070  D_term                                                                                                          
2000b074  u                                                                                                               
2000b078  response_index                                                                                                  
2000b07c  LastPosition                                                                                                    
2000b08c  _lock                                                                                                           
2000b090  _unlock                                                                                                         
2000b094  g_ui32milliseconds                                                                                              
2000b098  g_ui32heartbeat                                                                                                 
ffffffff  __TI_pprof_out_hndl                                                                                             
ffffffff  __TI_prof_data_size                                                                                             
ffffffff  __TI_prof_data_start                                                                                            
ffffffff  __binit__                                                                                                       
ffffffff  __c_args__                                                                                                      
ffffffff  binit                                                                                                           
UNDEFED   __mpu_init                                                                                                      
UNDEFED   _system_post_cinit                                                                                              

[300 symbols]
